:100000000C9495000C94C30A0C94EC0A0C94190BF4
:100010000C94050D0C94DC0C0C942E0D0C94570DC7
:100020000C94800D0C94B2000C94B30C0C948A0CBC
:100030000C94B2000C94B2000C94B2000C94810E9B
:100040000C94B2000C94B2000C94B2000C94B20068
:100050000C94B2003106560656065606560656064B
:1000600056065606560656065606560656065606B0
:1000700056065606560683049604A904BC04CF040B
:10008000E204F504090556065606310556069F0595
:100090005606560656068B051D0577055606E805D5
:1000A0005606450556065606560656065606560682
:1000B0005606560656065006560656065606560666
:1000C0005606560656065606560656065606560650
:1000D0005606560656065606530645086408640832
:1000E00064086408640864086408640864086408B0
:1000F00064086408640864086408640887069A064B
:10010000AD06C006D306E606F9060D0764086408C6
:1001100035076408B3076408640864089707210773
:100120007B076408FC076408490711241FBECFE55C
:10013000D8E0DEBFCDBF13E0A0E6B0E0ECEFFFE11A
:1001400002C005900D92A23DB107D9F723E0A2EDC0
:10015000B3E001C01D92A83EB207E1F70E947C08FF
:100160000C94FC0F0C94000041E063E080E00E94DE
:10017000E609089563E080E00E948B0A089563E039
:1001800080E00E94570A08950F931F93CF93DF9347
:10019000CDB7DEB729970FB6F894DEBF0FBECDBF3F
:1001A00081B3806881BB02E01A8122E03C8142E099
:1001B00055E060E070E089850E94420B29960FB6F9
:1001C000F894DEBF0FBECDBFDF91CF911F910F918D
:1001D0000895682F70E082E00E94720C0895CF931A
:1001E000C82F61E081E00E948B0A62E081E00E94FA
:1001F0008B0A63E081E00E948B0A8BB39C2F907F77
:100200008F70892B8BBB63E081E00E94570A8FE9D6
:100210009FE00197F1F700C0000063E081E00E94D9
:100220008B0A20E1C29FC00111249BB39F70892BD0
:100230008BBB63E081E00E94570A8FE99FE0019742
:10024000F1F700C0000063E081E00E948B0A8FE3B9
:100250009FE10197F1F700C00000CF91089541E0C0
:1002600061E081E00E94E60941E062E081E00E94F5
:10027000E60941E063E081E00E94E60941E064E0D4
:1002800080E00E94E60941E065E080E00E94E60926
:1002900041E066E080E00E94E60941E067E080E03E
:1002A0000E94E6092FEF86E791E0215080409040C0
:1002B000E1F700C0000082E00E94EF008FE59AEEB7
:1002C0000197F1F700C0000088E20E94EF008FE97B
:1002D0009FE00197F1F700C000008CE00E94EF0062
:1002E0008FE99FE00197F1F700C0000081E00E94D4
:1002F000EF008FE59AEE0197F1F700C0000083E070
:100300000E94EF008FE39FE10197F1F700C000002A
:100310000895CF93C82F61E081E00E94570A62E000
:1003200081E00E948B0A63E081E00E948B0A8BB31C
:100330009C2F907F8F70892B8BBB63E081E00E94A4
:10034000570A8FE99FE00197F1F700C0000063E0D2
:1003500081E00E948B0A20E1C29FC00111249BB35F
:100360009F70892B8BBB63E081E00E94570A8FE965
:100370009FE00197F1F700C0000063E081E00E9478
:100380008B0A8FE39FE10197F1F700C00000CF9146
:100390000895CF93DF93EC0103C00E948901219659
:1003A00088818111FACFDF91CF91089581E00E9479
:1003B000EF008FE59AEE0197F1F700C00000089575
:1003C0009FEF960F9F3080F4823071F4813019F0E6
:1003D000823031F008958FE7860F0E94EF00089574
:1003E0008FEB860F0E94EF0008954F925F926F92FD
:1003F0007F928F929F92AF92BF92CF92DF92EF92B5
:10040000FF920F931F93CF93DF934B015C01672BF8
:10041000682B692B19F480E30E948901412C512C2F
:1004200032014394C12CD12C76013FC0CC0CDD1C91
:10043000EE1CFF1CD701C601880F991FAA1FBB1F06
:10044000880F991FAA1FBB1FC80ED91EEA1EFB1ECC
:10045000C501B4012AE030E040E050E00E94D40F32
:10046000C60ED71EE81EF91EC114D104E104F10422
:1004700091F4440C551C661C771CD301C201880FF3
:10048000991FAA1FBB1F880F991FAA1FBB1F480EC9
:10049000591E6A1E7B1EC501B4012AE030E040E00F
:1004A00050E00E94D40F49015A0181149104A10423
:1004B000B10409F0BBCF812C912C540125C0C70198
:1004C000B6012AE030E040E050E00E94D40F022F55
:1004D000132FD42FC52F80E3860F0E948901C02ED1
:1004E000D12EED2EFC2EC114D104E104F10461F4EF
:1004F0008AE0481651046104710430F0730162010E
:10050000812C912C54018394C814D904EA04FB046F
:10051000B1F6DF91CF911F910F91FF90EF90DF9097
:10052000CF90BF90AF909F908F907F906F905F9093
:100530004F900895813051F018F0823069F008959D
:1005400041E062E082E00E94E609089541E067E050
:1005500082E00E94E609089541E063E083E00E94A2
:10056000E6090895813049F018F0823059F0089575
:1005700062E082E00E94570A089567E082E00E94EC
:10058000570A089563E083E00E94570A0895813076
:1005900049F018F0823059F0089562E082E00E943C
:1005A0008B0A089567E082E00E948B0A089563E059
:1005B00083E00E948B0A08950E94AD0D08951F9359
:1005C000CF93DF93162FD42F883008F087E0C82F01
:1005D000C0650E94B30D8C2F0E94D30D812F0E9405
:1005E000FA0D8D2F0E94FA0D0E94350E2FEF81EE2D
:1005F00094E0215080409040E1F700C00000DF917E
:10060000CF911F910895CF93DF93D62F883008F0B4
:1006100087E0C82FC0650E94B30D8C2F0E94D30DB8
:100620008D2F0E94FA0D0E94C30D8C2F0E94E50DA4
:100630000E940B0EC82F0E94350E8C2FDF91CF9198
:100640000895FF920F931F93CF93DF93F62E8A01A5
:10065000D22F8770C82FC0650E94B30D8C2F0E94C7
:10066000D30D8F2D0E94FA0D6D2FC8010E941F0E11
:100670000E94350E2FEF81EE94E021508040904093
:10068000E1F700C00000DF91CF911F910F91FF9023
:1006900008950F931F93CF93DF93CDB7DEB72997BC
:1006A0000FB6F894DEBF0FBECDBF81B3806281BBB1
:1006B00080E49CE90E94870C01E010E02B8132E08D
:1006C00042E052E060E070E080E00E94420B299638
:1006D0000FB6F894DEBF0FBECDBFDF91CF911F9153
:1006E0000F9108951DBC1CBC60E273E083E00E9482
:1006F000720C08951DBC1CBC64E378E083E00E948A
:10070000720C08951DBC1CBC68EB7BE083E00E946A
:10071000720C0895CF9381E00E94D909BC0180E05A
:1007200090E00E94D90E29E037E24CE15DE30E949F
:100730003F0F0E94AA0EC62F6C3158F10E94D601BD
:1007400080E690E00E94C9016C2F70E080E090E0AC
:100750000E94F50183E40E94890161E082E00E9429
:10076000E00186E690E00E94C90165E082E00E9417
:100770008B0A66E082E00E94570A2FEF83ED90E338
:10078000215080409040E1F700C000000E94D60157
:1007900047C0663158F50E94D60180E690E00E947D
:1007A000C9016C2F70E080E090E00E94F50183E4C5
:1007B0000E94890161E082E00E94E0018CE690E005
:1007C0000E94C90165E082E00E948B0A66E082E037
:1007D0000E948B0A2FEF83ED90E3215080409040E0
:1007E000E1F700C000000E94D6011AC00E94D601A5
:1007F00080E690E00E94C9016C2F70E080E090E0FC
:100800000E94F50183E40E9489012FEF83ED90E3BC
:10081000215080409040E1F700C000000E94D601C6
:10082000CF910895CF93C0E017C00E94BF002FEF73
:1008300089E698E1215080409040E1F700C0000037
:100840000E94BA002FEF89E698E121508040904045
:10085000E1F700C00000CF5FC33038F3CF910895B7
:10086000CF9383E790E00E944C0E0E947D0EC82F2C
:1008700082E990E00E944C0E0E947D0E482F6C2F62
:1008800080E00E94DF0285EB90E00E944C0E0E9407
:100890007D0E482F6C2F81E00E94DF0284ED90E0F6
:1008A0000E944C0ECF910895CF9384EF90E00E9468
:1008B0004C0E0E947D0EC82F40E0682F80E00E9401
:1008C000DF0240E06C2F81E00E94DF0289E191E0CD
:1008D0000E944C0ECF910895CF93DF93C1E0F0C1F9
:1008E0000E948A038EE391E00E944C0E0E947D0ECE
:1008F00090E0FC01F097E334F10508F0D7C1E65D24
:10090000FF4F0C94F60F0E94D60183E591E00E9400
:10091000C90180E00E94B2022FEF89E698E12150E0
:1009200080409040E1F700C00000CAC10E94D6019B
:100930008BE591E00E94C90180E00E94C7022FEF81
:1009400089E698E1215080409040E1F700C0000026
:10095000B7C10E94D60184E691E00E94C90181E0FE
:100960000E94B2022FEF89E698E12150804090402A
:10097000E1F700C00000A4C10E94D6018BE591E020
:100980000E94C90181E00E94C7022FEF89E698E129
:10099000215080409040E1F700C0000091C10E94CA
:1009A000D6018CE691E00E94C90182E00E94B20269
:1009B0002FEF89E698E1215080409040E1F700C098
:1009C00000007EC10E94D60184E791E00E94C90127
:1009D00082E00E94C7022FEF89E698E12150804013
:1009E0009040E1F700C000006BC10E94D6018DE786
:1009F00091E00E94C90163E082E00E94570A2FEF54
:100A000089E698E1215080409040E1F700C0000065
:100A100057C10E94D60185E891E00E94C90163E0B8
:100A200082E00E948B0A2FEF89E698E121508040F6
:100A30009040E1F700C0000043C10E94D6018EE85B
:100A400091E00E94C90164E082E00E94570A2FEF02
:100A500089E698E1215080409040E1F700C0000015
:100A60002FC10E94D60186E991E00E94C90164E08D
:100A700082E00E948B0A2FEF89E698E121508040A6
:100A80009040E1F700C000001BC180E00E94D9093E
:100A9000BC0180E090E00E94D90E29E434E241E9F3
:100AA0005EE30E943F0F0E94AA0ED62F8FE991E0CD
:100AB0000E94C9016D2F70E080E090E00E94F50176
:100AC0008D2F0E94E90061E082E00E94E0018AEA45
:100AD00091E00E94C9012FEF89E698E12150804002
:100AE0009040E1F700C000000E94D601E9C00E94DA
:100AF00072030E94D60188EB91E00E94C9012FEF9A
:100B00008DE399E4215080409040E1F700C000005F
:100B10000E948203D5C00E947A030E94D60184EC11
:100B200091E00E94C9012FEF8DE399E421508040AC
:100B30009040E1F700C000000E948203C1C081E044
:100B40000E94D909BC0180E090E00E94D90E29E002
:100B500037E24CE15DE30E943F0F0E94AA0ED62FC0
:100B60006531F0F40E94D60180ED91E00E94C90148
:100B700061E082E00E94E0018FED91E00E94C901F6
:100B80006D2F70E080E090E00E94F5012FEF89E684
:100B900098E1215080409040E1F700C0000090C0F3
:100BA0000E94D60185EE91E00E94C90165E082E0D5
:100BB0000E948B0A66E082E00E94570A2FEF89E6C6
:100BC00098E1215080409040E1F700C0000078C0DB
:100BD00081E00E94D909BC0180E090E00E94D90E1A
:100BE00029E037E24CE15DE30E943F0F0E94AA0E2C
:100BF000D62F6D31F0F00E94D60180ED91E00E9479
:100C0000C90161E082E00E94E0018FED91E00E9465
:100C1000C9016D2F70E080E090E00E94F5012FEF98
:100C200089E698E1215080409040E1F700C0000043
:100C300047C00E94D60181EF91E00E94C90165E0A2
:100C400082E00E948B0A66E082E00E948B0A2FEF0E
:100C500089E698E1215080409040E1F700C0000013
:100C60002FC00E94D6018EEF91E00E94C90161E081
:100C700082E00E94E0018AE092E00E94C9018AE1DC
:100C800092E00E944C0E2FEF8DE399E421508040BA
:100C90009040E1F700C000000E94D601C0E010C003
:100CA0000E9430040DC00E9454040AC00E94D60164
:100CB00080E492E00E94C9010E948A030E947D0E96
:100CC000C1110ECEDF91CF910895CF93DF932FEF17
:100CD00089E698E1215080409040E1F700C0000093
:100CE0000E94D601C1E003C20E948A038EE391E014
:100CF0000E944C0E0E947D0E90E0FC01F097E832BD
:100D0000F10508F0E1C1E359FF4F0C94F60F0E9482
:100D1000D60183E591E00E94C90180E00E94B20201
:100D20002FEF89E698E1215080409040E1F700C024
:100D30000000DDC10E94D6018BE591E00E94C9014F
:100D400080E00E94C7022FEF89E698E121508040A1
:100D50009040E1F700C00000CAC10E94D60184E6BD
:100D600091E00E94C90181E00E94B2022FEF89E662
:100D700098E1215080409040E1F700C00000B7C1E9
:100D80000E94D6018BE591E00E94C90181E00E949A
:100D9000C7022FEF89E698E1215080409040E1F7AB
:100DA00000C00000A4C10E94D6018CE691E00E9420
:100DB000C90182E00E94B2022FEF89E698E121503A
:100DC00080409040E1F700C0000091C10E94D60130
:100DD00084E791E00E94C90182E00E94C7022FEFE0
:100DE00089E698E1215080409040E1F700C0000082
:100DF0007EC10E94D6018DE791E00E94C90163E0A7
:100E000082E00E94570A2FEF89E698E12150804046
:100E10009040E1F700C000006AC10E94D60185E859
:100E200091E00E94C90163E082E00E948B0A2FEFEB
:100E300089E698E1215080409040E1F700C0000031
:100E400056C10E94D6018EE891E00E94C90164E07B
:100E500082E00E94570A2FEF89E698E121508040F6
:100E60009040E1F700C0000042C10E94D60186E92F
:100E700091E00E94C90164E082E00E948B0A2FEF9A
:100E800089E698E1215080409040E1F700C00000E1
:100E90002EC180E00E94D909BC0180E090E00E9450
:100EA000D90E29E434E241E95EE30E943F0F0E943B
:100EB000AA0ED62F8FE991E00E94C9016D2F70E034
:100EC00080E090E00E94F5018D2F0E94E90061E032
:100ED00082E00E94E0018AEA91E00E94C9012FEFBE
:100EE00089E698E1215080409040E1F700C0000081
:100EF0000E94D601FCC00E94D6018FE492E00E94BD
:100F0000C90161E082E00E94E0018FE592E00E9469
:100F1000C9018FE692E00E944C0E2FEF8DE399E419
:100F2000215080409040E1F700C00000E0C00E94E6
:100F3000D6018FE492E00E94C90161E082E00E9444
:100F4000E0018FE592E00E94C9018FE692E00E94E5
:100F50004C0E2FEF8DE399E4215080409040E1F753
:100F600000C00000C4C081E00E94D909BC0180E03B
:100F700090E00E94D90E29E037E24CE15DE30E9447
:100F80003F0F0E94AA0ED62F6531F0F40E94D601C1
:100F900080ED91E00E94C90161E082E00E94E001E1
:100FA0008FED91E00E94C9016D2F70E080E090E02C
:100FB0000E94F5012FEF89E698E121508040904092
:100FC000E1F700C0000093C00E94D60185EE91E0D9
:100FD0000E94C90165E082E00E948B0A66E082E01F
:100FE0000E94570A2FEF89E698E1215080409040F7
:100FF000E1F700C000007BC081E00E94D909BC017C
:1010000080E090E00E94D90E29E037E24CE15DE3F8
:101010000E943F0F0E94AA0ED62F6D31F0F00E9461
:10102000D60180ED91E00E94C90161E082E00E945A
:10103000E0018FED91E00E94C9016D2F70E080E02A
:1010400090E00E94F5012FEF89E698E12150804061
:101050009040E1F700C000004AC00E94D60181EF35
:1010600091E00E94C90165E082E00E948B0A66E07F
:1010700082E00E948B0A2FEF89E698E121508040A0
:101080009040E1F700C0000032C00E94D6018EEF10
:1010900091E00E94C90161E082E00E94E00181E9E3
:1010A00092E00E94C90180EA92E00E944C0E2FEF6C
:1010B00083ED90E3215080409040E1F700C00000B4
:1010C0000E94D601C0E013C00E948A030E94D6018C
:1010D00080E492E00E94C9012FEF89E698E1215057
:1010E00080409040E1F700C000000E947D0EC111D9
:1010F000FBCDDF91CF910895CF93DF93CDB7DEB7CE
:1011000060970FB6F894DEBF0FBECDBF0E942F01CF
:101110000E94DC020E94380E0E94B4000E94D40992
:101120000E94490381E694E69A8389838DE690E0E4
:101130009C838B8324E0AE014F5F5F4F61E082E0D0
:101140000E94210381E392E39E838D8383E390E0F9
:1011500098878F8324E0AE014B5F5F4F61E083E0AF
:101160000E94210341E065E082E00E94E60941E03F
:1011700066E082E00E94E60941E060E081E00E94D2
:10118000E60960E081E00E94570A80E00E949A022E
:1011900081E00E949A0282E00E949A0241E063E0AC
:1011A00082E00E94E60941E064E082E00E94E609F4
:1011B0000E94C40085EC92E00E944C0E0E947D0EBD
:1011C000813409F48AC0853509F4E8C0F3CF8CEE88
:1011D00092E00E944C0E1D861E861F86188A64E0CF
:1011E000CE010D960E94620E2FEF81EE94E0215009
:1011F00080409040E1F700C000008CE093E00E9446
:10120000C901CE010D960E94C90188E193E00E94B8
:101210004C0E19861A861B861C8664E0CE01099640
:101220000E94620E61E082E00E94E00185E393E0AB
:101230000E94C901CE0109960E94C9012FEF83EDDA
:1012400090E3215080409040E1F700C000000E94F0
:10125000D601123030F59D858981981311C099858A
:101260008D8198130DC081E493E00E94C9018FE441
:1012700093E00E944C0E0E94D6010E946C042FC085
:101280008FE593E00E94C9012FEF83ED90E3215099
:1012900080409040E1F700C000000E94D6011F5F2F
:1012A0001EC089E693E00E94C90161E082E00E94CD
:1012B000E00183E793E00E94C9012FEF83ED90E303
:1012C000215080409040E1F700C000000E94D6010C
:1012D0000E94120400E010E002C001E010E00111E1
:1012E00076CF68CF83E790E00E944C0E0E947D0E7F
:1012F000182F8CE793E00E944C0E0E947D0ED82E92
:101300008BE993E00E944C0E0E947D0EC82E612F47
:1013100080E00E940303E82E612F81E00E94030316
:10132000023000F5DE100DC0C8120BC086EB93E052
:101330000E94C90183EC93E00E944C0E0E94650656
:1013400030C08FE593E00E94C9012FEF83ED90E359
:10135000215080409040E1F700C000000E94D6017B
:101360000F5F1FC089E693E00E94C90161E082E03F
:101370000E94E00183E793E00E94C9012FEF83ED13
:1013800090E3215080409040E1F700C000000E94AF
:10139000D6010E94120400E0F12C03C000E0FF24FB
:1013A000F394F1109FCF06CF80E487B987E886B920
:1013B0000895877097B1987F892B87B986B180642B
:1013C00086B93699FECF84B195B108954130A9F51B
:1013D00081110BC02AB381E090E002C0880F991FF1
:1013E0006A95E2F7822B8ABB0895813059F427B3BE
:1013F00081E090E002C0880F991F6A95E2F7822B86
:1014000087BB0895823059F424B381E090E002C094
:10141000880F991F6A95E2F7822B84BB0895833069
:1014200009F044C021B381E090E002C0880F991F09
:101430006A95E2F7822B81BB0895411137C0811173
:101440000CC02AB381E090E002C0880F991F6A9512
:10145000E2F7809582238ABB0895813061F427B337
:1014600081E090E002C0880F991F6A95E2F78095AD
:10147000822387BB0895823061F424B381E090E039
:1014800002C0880F991F6A95E2F78095822384BB7A
:101490000895833059F421B381E090E002C0880FB1
:1014A000991F6A95E2F78095822381BB0895811187
:1014B0000BC02BB381E090E002C0880F991F6A95A2
:1014C000E2F7822B8BBB0895813059F428B381E079
:1014D00090E002C0880F991F6A95E2F7822B88BBC3
:1014E0000895823059F425B381E090E002C0880F5E
:1014F000991F6A95E2F7822B85BB0895833051F4DA
:1015000022B381E090E002C0880F991F6A95E2F74C
:10151000822B82BB089581110CC02BB381E090E037
:1015200002C0880F991F6A95E2F7809582238BBBD2
:101530000895813061F428B381E090E002C0880F03
:10154000991F6A95E2F78095822388BB08958230BF
:1015500061F425B381E090E002C0880F991F6A957D
:10156000E2F78095822385BB0895833059F422B336
:1015700081E090E002C0880F991F6A95E2F780959C
:10158000822382BB08951F920F920FB60F921124EF
:101590002F933F934F935F936F937F938F939F937B
:1015A000AF93BF93EF93FF93E091D603F091D703EE
:1015B000309709F00995FF91EF91BF91AF919F91FD
:1015C0008F917F916F915F914F913F912F910F90EC
:1015D0000FBE0F901F9018951F920F920FB60F928B
:1015E00011242F933F934F935F936F937F938F9328
:1015F0009F93AF93BF93EF93FF938091D403909108
:10160000D503892B29F0E091D603F091D7030995F2
:10161000FF91EF91BF91AF919F918F917F916F91CA
:101620005F914F913F912F910F900FBE0F901F90A0
:1016300018951F920F920FB60F9211242F933F937C
:101640004F935F936F937F938F939F93AF93BF93CA
:10165000EF93FF93E091D203F091D303309709F019
:101660000995FF91EF91BF91AF919F918F917F91DC
:101670006F915F914F913F912F910F900FBE0F90FF
:101680001F9018950F931F93CF93DF93CDB7DEB7BD
:1016900029970FB6F894DEBF0FBECDBF09831A831A
:1016A0002B833C834D835E836F83788789870130EA
:1016B000E9F120F0023009F4CFC009C123B73E811F
:1016C0009D8140E1949FC0011124832B822B83BF15
:1016D00029B73F819885892F90E0880F991F832B28
:1016E000822B89BF8F81811103C08885882319F0DF
:1016F0008FB780688FBF83B78F7B83BF8B8181302B
:1017000031F040F0823051F0833061F0E0C083B7B7
:1017100083BFDDC083B7886083BFD9C083B78864C7
:1017200083BFD5C083B7806483BFD1C049B72F8141
:1017300030E0220F331F220F331F998550E2959F0F
:10174000C0011124822B842B89BF8F81811103C09A
:101750008985882319F08FB780688FBF8C8182308C
:1017600029F128F48823A9F0813031F045C0833075
:1017700051F18430A9F140C08FB58E7F8FBD8FB5F8
:101780008D7F8FBD8EB5877F8EBD8EB58F7E8EBDD2
:1017900033C08FB58E7F8FBD8FB58D7F8FBD8EB5DA
:1017A00088608EBD8EB58F7E8EBD26C08FB58E7F34
:1017B0008FBD8FB582608FBD8EB588608EBD8EB5B2
:1017C00080618EBD19C08FB581608FBD8FB582607D
:1017D0008FBD8EB588608EBD8EB580618EBD0CC00C
:1017E0008FB581608FBD8FB58D7F8FBD8EB58860C1
:1017F0008EBD8EB58F7E8EBD8A81882319F0813093
:1018000091F025C02FB59D8130E4939FC001112434
:10181000822B8FBD29B7988540E1949FC001112488
:10182000822B89BF14C02FB59D8150E1959FC001C7
:101830001124822B8FBD29B79885892F90E0880FBE
:10184000991F880F991F880F991F822B89BF9EB5FA
:101850008E81892B8EBD3BC025B53E819D8140E1A7
:10186000949FC0011124832B822B85BD29B78F81C2
:1018700090E4899FA0011124988530E8939FC001CE
:101880001124842B822B89BF8F81811103C088850D
:10189000882319F08FB780688FBF85B58F7B85BD92
:1018A0008B81813031F040F0823051F0833061F033
:1018B0000EC085B585BD0BC085B5886085BD07C0E8
:1018C00085B5886485BD03C085B5806485BD2996CE
:1018D0000FB6F894DEBF0FBECDBFDF91CF911F9141
:1018E0000F910895823089F018F4882331F008951B
:1018F000833029F0843031F008956CBF08957BBDAA
:101900006ABD089579BD68BD089563BD089597BD0A
:1019100086BD08951F920F920FB60F9211242F9338
:101920003F934F935F936F937F938F939F93AF9367
:10193000BF93EF93FF93E091E403F091E5033097B9
:1019400009F00995FF91EF91BF91AF919F918F9110
:101950007F916F915F914F913F912F910F900FBEAB
:101960000F901F9018951F920F920FB60F9211248F
:101970002F933F934F935F936F937F938F939F9397
:10198000AF93BF93EF93FF93E091E203F091E303F2
:10199000309709F00995FF91EF91BF91AF919F9119
:1019A0008F917F916F915F914F913F912F910F9008
:1019B0000FBE0F901F9018951F920F920FB60F92A7
:1019C00011242F933F934F935F936F937F938F9344
:1019D0009F93AF93BF93EF93FF93E091E003F09158
:1019E000E103309709F00995FF91EF91BF91AF9115
:1019F0009F918F917F916F915F914F913F912F9127
:101A00000F900FBE0F901F9018951F920F920FB658
:101A10000F9211242F933F934F935F936F937F9374
:101A20008F939F93AF93BF93EF93FF93E091DE0368
:101A3000F091DF03309709F00995FF91EF91BF9185
:101A4000AF919F918F917F916F915F914F913F9156
:101A50002F910F900FBE0F901F9018951F920F920D
:101A60000FB60F9211242F933F934F935F936F9371
:101A70007F938F939F93AF93BF93EF93FF93E091E7
:101A8000DC03F091DD03309709F00995FF91EF91A8
:101A9000BF91AF919F918F917F916F915F914F9186
:101AA0003F912F910F900FBE0F901F9018951F928E
:101AB0000F920FB60F9211242F933F934F935F9382
:101AC0006F937F938F939F93AF93BF93EF93FF9306
:101AD000E091DA03F091DB03309709F00995FF916B
:101AE000EF91BF91AF919F918F917F916F915F9196
:101AF0004F913F912F910F900FBE0F901F9018950F
:101B00001F920F920FB60F9211242F933F934F9372
:101B10005F936F937F938F939F93AF93BF93EF9355
:101B2000FF938091DA039091DB03892B29F0E091F8
:101B3000D803F091D9030995FF91EF91BF91AF912F
:101B40009F918F917F916F915F914F913F912F91D5
:101B50000F900FBE0F901F9018958CE080B986B73C
:101B6000846086BF089584EA86BF81B1887F88300B
:101B7000E1F72FEF81EE94E0215080409040E1F7B3
:101B800000C00000089584EA86BF81B1887F80315B
:101B9000E1F72FEF81EE94E0215080409040E1F793
:101BA00000C000000895880F83B984E886BF81B122
:101BB000887F8831E1F72FEF81EE94E0215080405B
:101BC0009040E1F700C00000089590E0880F991F51
:101BD000816083B984E886BF81B1887F8034E1F772
:101BE0002FEF81EE94E0215080409040E1F700C05B
:101BF0000000089583B984E886BF81B1887F883268
:101C0000E1F72FEF81EE94E0215080409040E1F722
:101C100000C00000089584E886BF81B1887F8835C0
:101C2000E1F706B607FEFDCF2FEF81EE94E02150DD
:101C300080409040E1F700C0000083B108950F9309
:101C40001F93CF93DF938C01D62FC0E007C0F8011C
:101C5000EC0FF11D80810E94FA0DCF5FCD17B8F314
:101C6000DF91CF911F910F91089584E986BF089568
:101C700081B38E7F81BB81B3826081BB80E88FBFDF
:101C800088E18AB986E880BD10BC83E389B90895EC
:101C90005D9BFECF8CB908950F931F93CF93DF9375
:101CA0008C01C0E0D0E003C00E94480E2196F801EC
:101CB000EC0FFD1F80818111F7CFDF91CF911F9134
:101CC0000F910895DC0190E00EC05F9BFECFFD01F7
:101CD000E90FF11D2CB12083EFE5FAEE3197F1F712
:101CE00000C000009F5F492F50E0262F30E02150B8
:101CF0003109421753074CF308955F9BFECF8CB117
:101D000008951F920F920FB60F9211242F933F93B5
:101D10004F935F936F937F938F939F93AF93BF93F3
:101D2000EF93FF93E091E603F091E703309709F01A
:101D30000995FF91EF91BF91AF919F918F917F9105
:101D40006F915F914F913F912F910F900FBE0F9028
:101D50001F9018950E941E0F88F09F5798F0B92F7A
:101D60009927B751B0F0E1F0660F771F881F991FD0
:101D70001AF0BA95C9F714C0B13091F00E94380F2B
:101D8000B1E008950C94380F672F782F8827B85F3B
:101D900039F0B93FCCF3869577956795B395D9F728
:101DA0003EF490958095709561957F4F8F4F9F4F32
:101DB0000895E89409C097FB3EF49095809570953E
:101DC00061957F4F8F4F9F4F9923A9F0F92F96E987
:101DD000BB279395F695879577956795B795F111FC
:101DE000F8CFFAF4BB0F11F460FF1BC06F5F7F4F99
:101DF0008F4F9F4F16C0882311F096E911C07723AB
:101E000021F09EE8872F762F05C0662371F096E8B3
:101E1000862F70E060E02AF09A95660F771F881F82
:101E2000DAF7880F9695879597F9089557FD90589A
:101E3000440F551F59F05F3F71F04795880F97FB8E
:101E4000991F61F09F3F79F0879508951216130648
:101E50001406551FF2CF4695F1DF08C01616170677
:101E60001806991FF1CF86957105610508940895AC
:101E7000E894BB2766277727CB0197F908950E943E
:101E8000520F0C94C30F0E94B50F38F00E94BC0F84
:101E900020F0952311F00C94AC0F0C94B20F112488
:101EA0000C94390F0E94160F70F3959FC1F3950F94
:101EB00050E0551F629FF001729FBB27F00DB11DCE
:101EC000639FAA27F00DB11DAA1F649F6627B00D5E
:101ED000A11D661F829F2227B00DA11D621F739F47
:101EE000B00DA11D621F839FA00D611D221F749F55
:101EF0003327A00D611D231F849F600D211D822F9C
:101F0000762F6A2F11249F5750409AF0F1F08823C2
:101F10004AF0EE0FFF1FBB1F661F771F881F9150EF
:101F20005040A9F79E3F510580F00C94AC0F0C94E3
:101F3000390F5F3FE4F3983ED4F386957795679524
:101F4000B795F795E7959F5FC1F7FE2B880F911D19
:101F50009695879597F9089597F99F6780E870E0BF
:101F600060E008959FEF80EC089500240A9416160F
:101F7000170618060906089500240A941216130677
:101F8000140605060895092E0394000C11F4882305
:101F900052F0BB0F40F4BF2B11F460FF04C06F5F21
:101FA0007F4F8F4F9F4F0895A1E21A2EAA1BBB1B94
:101FB000FD010DC0AA1FBB1FEE1FFF1FA217B30715
:101FC000E407F50720F0A21BB30BE40BF50B661F2B
:101FD000771F881F991F1A9469F7609570958095EF
:101FE00090959B01AC01BD01CF010895EE0FFF1F3D
:0C1FF0000590F491E02D0994F894FFCFC7
:101FFC0054454D503D004443204F4E004443204F28
:10200C00464600706C6561736520656E7465722060
:10201C0073746F72696E6720706F736974696F6E19
:10202C000A00706C6561736520656E74657220754D
:10203C007365726E616D65206966206E65772075BB
:10204C007365720A00706C6561736520656E7465EA
:10205C00722070617373206966206E6577207573CA
:10206C0065720A00706C65617365207369676E2018
:10207C00696E20616761696E2061732061207573E0
:10208C0065720A00706C6561736520656E746572AB
:10209C0020706F736974696F6E20746F2062652095
:1020AC0072656D6F7665640A007573657220686180
:1020BC0073206265656E20636C6561726564207364
:1020CC0075636365737366756C6C79210A00706C4B
:1020DC006561736520656E746572206F72646572DC
:1020EC00200A004C454431204F4E004C45443220D0
:1020FC004F4646004C454432204F4E004C4544332D
:10210C00204F4E004C454433204F4646004C45442E
:10211C0034204F4E004C454434204F4646004C452D
:10212C004435204F4E004C454435204F4646006206
:10213C00726974686E6573733D0044494D4D455228
:10214C00204C4544204F4E00444F4F52204F504599
:10215C004E454400444F4F5220434C4F534544008E
:10216C00736F7272792077652063616E27740074C7
:10217C00656D703D004443204D4F544F52204F4EDF
:10218C00004443204D4F544F52204F464600594F68
:10219C005520415245204E4F20004C4F4E47455242
:1021AC0020414E2041444D494E002A2A2A2A2A59C0
:1021BC004F5520415245204E4F204C4F4E474552D3
:1021CC0020414E2041444D494E2A2A2A2A2A0A00EF
:1021DC0077616974696E67206F7264657221007330
:1021EC006F72727920796F7520646F6E2774006836
:1021FC00617665207065726D697373696F6E0073BB
:10220C006F72727920796F7520646F6E27742068F5
:10221C00617665207065726D697373696F6E200AE3
:10222C00004C4F4E47455220414E205553455200CD
:10223C002A2A2A2A2A594F5520415245204E4F20EE
:10224C004C4F4E47455220414E20555345522A2A59
:10225C002A2A2A0A00706C6561736520656E7465A4
:10226C007220796F757220636865636B696E672085
:10227C00636861726163746572210A00706C6561D8
:10228C00736520656E74657220757365726E616D11
:10229C00652069662061646D696E0A0061646D6910
:1022AC006E20757365723A00706C6561736520659C
:1022BC006E74657220506173732069662061646D61
:1022CC00696E3A0A0061646D696E20706173733ACD
:1022DC000077656C636F6D652061646D696E007766
:1022EC00656C636F6D652061646D696E210A0074A5
:1022FC007269616C73202D31006E6F20747269618C
:10230C006C7300616C61726D206F6E00706C656136
:10231C00736520656E74657220757365726E616D80
:10232C006520696620757365720A00706C6561734F
:10233C006520656E74657220706173732069662008
:10234C00757365720A0077656C636F6D65207573C4
:10235C0065720077656C636F6D65207573657221AE
:02236C000A0065
:00000001FF
